{
  "contractName": "DBank",
  "abi": [
    {
      "inputs": [],
      "stateMutability": "nonpayable",
      "type": "constructor"
    },
    {
      "anonymous": false,
      "inputs": [
        {
          "indexed": false,
          "internalType": "address",
          "name": "account",
          "type": "address"
        },
        {
          "indexed": false,
          "internalType": "uint256",
          "name": "amount",
          "type": "uint256"
        }
      ],
      "name": "EtherDeposited",
      "type": "event"
    },
    {
      "anonymous": false,
      "inputs": [
        {
          "indexed": false,
          "internalType": "address",
          "name": "account",
          "type": "address"
        },
        {
          "indexed": false,
          "internalType": "uint256",
          "name": "amount",
          "type": "uint256"
        }
      ],
      "name": "EtherWithdrawn",
      "type": "event"
    },
    {
      "anonymous": false,
      "inputs": [
        {
          "indexed": false,
          "internalType": "address",
          "name": "payer",
          "type": "address"
        },
        {
          "indexed": false,
          "internalType": "address",
          "name": "reciver",
          "type": "address"
        },
        {
          "indexed": false,
          "internalType": "uint256",
          "name": "amount",
          "type": "uint256"
        }
      ],
      "name": "Transaction",
      "type": "event"
    },
    {
      "inputs": [],
      "name": "manager",
      "outputs": [
        {
          "internalType": "address",
          "name": "",
          "type": "address"
        }
      ],
      "stateMutability": "view",
      "type": "function",
      "constant": true
    },
    {
      "inputs": [],
      "name": "checkBankCapital",
      "outputs": [
        {
          "internalType": "uint256",
          "name": "",
          "type": "uint256"
        }
      ],
      "stateMutability": "view",
      "type": "function",
      "constant": true
    },
    {
      "inputs": [
        {
          "internalType": "address",
          "name": "_address",
          "type": "address"
        }
      ],
      "name": "checkBalance",
      "outputs": [
        {
          "internalType": "uint256",
          "name": "",
          "type": "uint256"
        }
      ],
      "stateMutability": "view",
      "type": "function",
      "constant": true
    },
    {
      "inputs": [],
      "name": "depositBalance",
      "outputs": [],
      "stateMutability": "payable",
      "type": "function",
      "payable": true
    },
    {
      "inputs": [
        {
          "internalType": "uint256",
          "name": "_amount",
          "type": "uint256"
        }
      ],
      "name": "withdrawBalance",
      "outputs": [],
      "stateMutability": "nonpayable",
      "type": "function"
    },
    {
      "inputs": [
        {
          "internalType": "address",
          "name": "_payer",
          "type": "address"
        },
        {
          "internalType": "uint256",
          "name": "_amount",
          "type": "uint256"
        },
        {
          "internalType": "uint256",
          "name": "_nonce",
          "type": "uint256"
        },
        {
          "internalType": "bytes",
          "name": "_signature",
          "type": "bytes"
        }
      ],
      "name": "transferBalance",
      "outputs": [],
      "stateMutability": "nonpayable",
      "type": "function"
    }
  ],
  "bytecode": "0x608060405234801561001057600080fd5b50336000806101000a81548173ffffffffffffffffffffffffffffffffffffffff021916908373ffffffffffffffffffffffffffffffffffffffff160217905550611008806100606000396000f3fe6080604052600436106100555760003560e01c8063481c6a751461005a5780635f5152261461008557806361bc1a49146100c25780638f7790f9146100cc578063966f6b59146100f5578063da76d5cd14610120575b600080fd5b34801561006657600080fd5b5061006f610149565b60405161007c9190610ad1565b60405180910390f35b34801561009157600080fd5b506100ac60048036038101906100a7919061089d565b61016d565b6040516100b99190610c31565b60405180910390f35b6100ca6101b6565b005b3480156100d857600080fd5b506100f360048036038101906100ee91906108c6565b61024d565b005b34801561010157600080fd5b5061010a61052d565b6040516101179190610c31565b60405180910390f35b34801561012c57600080fd5b5061014760048036038101906101429190610941565b6105c4565b005b60008054906101000a900473ffffffffffffffffffffffffffffffffffffffff1681565b6000600160008373ffffffffffffffffffffffffffffffffffffffff1673ffffffffffffffffffffffffffffffffffffffff168152602001908152602001600020549050919050565b600034905080600160003373ffffffffffffffffffffffffffffffffffffffff1673ffffffffffffffffffffffffffffffffffffffff168152602001908152602001600020600082825461020a9190610cb3565b925050819055507f939e51ac2fd009b158d6344f7e68a83d8d18d9b0cc88cf514aac6aaa9cad2a183382604051610242929190610b23565b60405180910390a150565b6000339050600260008273ffffffffffffffffffffffffffffffffffffffff1673ffffffffffffffffffffffffffffffffffffffff168152602001908152602001600020600084815260200190815260200160002060009054906101000a900460ff16156102f0576040517f08c379a00000000000000000000000000000000000000000000000000000000081526004016102e790610bd1565b60405180910390fd5b6001600260008373ffffffffffffffffffffffffffffffffffffffff1673ffffffffffffffffffffffffffffffffffffffff168152602001908152602001600020600085815260200190815260200160002060006101000a81548160ff0219169083151502179055506000858286866040516020016103729493929190610a83565b6040516020818303038152906040528051906020012090508573ffffffffffffffffffffffffffffffffffffffff166103ab82856106ec565b73ffffffffffffffffffffffffffffffffffffffff1614610401576040517f08c379a00000000000000000000000000000000000000000000000000000000081526004016103f890610bb1565b60405180910390fd5b84600160008873ffffffffffffffffffffffffffffffffffffffff1673ffffffffffffffffffffffffffffffffffffffff16815260200190815260200160002054101561044d57600080fd5b84600160008873ffffffffffffffffffffffffffffffffffffffff1673ffffffffffffffffffffffffffffffffffffffff168152602001908152602001600020600082825461049c9190610d40565b925050819055508173ffffffffffffffffffffffffffffffffffffffff166108fc869081150290604051600060405180830381858888f193505050501580156104e9573d6000803e3d6000fd5b507f7db7852b30fc413c4a90995f03d9f21e64c45d0ddc8324a8ce4c730a051cbf8286838760405161051d93929190610aec565b60405180910390a1505050505050565b60008060009054906101000a900473ffffffffffffffffffffffffffffffffffffffff1673ffffffffffffffffffffffffffffffffffffffff163373ffffffffffffffffffffffffffffffffffffffff16146105be576040517f08c379a00000000000000000000000000000000000000000000000000000000081526004016105b590610c11565b60405180910390fd5b47905090565b6000339050600160008273ffffffffffffffffffffffffffffffffffffffff1673ffffffffffffffffffffffffffffffffffffffff1681526020019081526020016000205482111561064b576040517f08c379a000000000000000000000000000000000000000000000000000000000815260040161064290610b91565b60405180910390fd5b81600160008373ffffffffffffffffffffffffffffffffffffffff1673ffffffffffffffffffffffffffffffffffffffff168152602001908152602001600020600082825461069a9190610d40565b925050819055508073ffffffffffffffffffffffffffffffffffffffff166108fc839081150290604051600060405180830381858888f193505050501580156106e7573d6000803e3d6000fd5b505050565b6000806000806106fb8561075b565b925092509250600186848484604051600081526020016040526040516107249493929190610b4c565b6020604051602081039080840390855afa158015610746573d6000803e3d6000fd5b50505060206040510351935050505092915050565b6000806000604184511461076e57600080fd5b6020840151915060408401519050606084015160001a925060008360ff16148061079b575060018360ff16145b156107b057601b836107ad9190610d09565b92505b601b8360ff1614806107c55750601c8360ff16145b610804576040517f08c379a00000000000000000000000000000000000000000000000000000000081526004016107fb90610bf1565b60405180910390fd5b9193909250565b600061081e61081984610c71565b610c4c565b90508281526020810184848401111561083657600080fd5b610841848285610dc7565b509392505050565b60008135905061085881610fa4565b92915050565b600082601f83011261086f57600080fd5b813561087f84826020860161080b565b91505092915050565b60008135905061089781610fbb565b92915050565b6000602082840312156108af57600080fd5b60006108bd84828501610849565b91505092915050565b600080600080608085870312156108dc57600080fd5b60006108ea87828801610849565b94505060206108fb87828801610888565b935050604061090c87828801610888565b925050606085013567ffffffffffffffff81111561092957600080fd5b6109358782880161085e565b91505092959194509250565b60006020828403121561095357600080fd5b600061096184828501610888565b91505092915050565b61097381610d74565b82525050565b61098a61098582610d74565b610e07565b82525050565b61099981610d86565b82525050565b60006109ac601c83610ca2565b91506109b782610eb1565b602082019050919050565b60006109cf601883610ca2565b91506109da82610eda565b602082019050919050565b60006109f2602183610ca2565b91506109fd82610f03565b604082019050919050565b6000610a15601183610ca2565b9150610a2082610f52565b602082019050919050565b6000610a38601483610ca2565b9150610a4382610f7b565b602082019050919050565b610a5781610db0565b82525050565b610a6e610a6982610db0565b610e2b565b82525050565b610a7d81610dba565b82525050565b6000610a8f8287610979565b601482019150610a9f8286610979565b601482019150610aaf8285610a5d565b602082019150610abf8284610a5d565b60208201915081905095945050505050565b6000602082019050610ae6600083018461096a565b92915050565b6000606082019050610b01600083018661096a565b610b0e602083018561096a565b610b1b6040830184610a4e565b949350505050565b6000604082019050610b38600083018561096a565b610b456020830184610a4e565b9392505050565b6000608082019050610b616000830187610990565b610b6e6020830186610a74565b610b7b6040830185610990565b610b886060830184610990565b95945050505050565b60006020820190508181036000830152610baa8161099f565b9050919050565b60006020820190508181036000830152610bca816109c2565b9050919050565b60006020820190508181036000830152610bea816109e5565b9050919050565b60006020820190508181036000830152610c0a81610a08565b9050919050565b60006020820190508181036000830152610c2a81610a2b565b9050919050565b6000602082019050610c466000830184610a4e565b92915050565b6000610c56610c67565b9050610c628282610dd6565b919050565b6000604051905090565b600067ffffffffffffffff821115610c8c57610c8b610e64565b5b610c9582610e93565b9050602081019050919050565b600082825260208201905092915050565b6000610cbe82610db0565b9150610cc983610db0565b9250827fffffffffffffffffffffffffffffffffffffffffffffffffffffffffffffffff03821115610cfe57610cfd610e35565b5b828201905092915050565b6000610d1482610dba565b9150610d1f83610dba565b92508260ff03821115610d3557610d34610e35565b5b828201905092915050565b6000610d4b82610db0565b9150610d5683610db0565b925082821015610d6957610d68610e35565b5b828203905092915050565b6000610d7f82610d90565b9050919050565b6000819050919050565b600073ffffffffffffffffffffffffffffffffffffffff82169050919050565b6000819050919050565b600060ff82169050919050565b82818337600083830152505050565b610ddf82610e93565b810181811067ffffffffffffffff82111715610dfe57610dfd610e64565b5b80604052505050565b6000610e1282610e19565b9050919050565b6000610e2482610ea4565b9050919050565b6000819050919050565b7f4e487b7100000000000000000000000000000000000000000000000000000000600052601160045260246000fd5b7f4e487b7100000000000000000000000000000000000000000000000000000000600052604160045260246000fd5b6000601f19601f8301169050919050565b60008160601b9050919050565b7f596f7520646f6e2774206861766520656e6f7567682065746865722100000000600082015250565b7f5472616e73616374696f6e206973206e6f742076616c69640000000000000000600082015250565b7f5472616e73616374696f6e20697320616c726561647920706572666f726d656460008201527f2100000000000000000000000000000000000000000000000000000000000000602082015250565b7f496e76616c6964205369676e6174757265000000000000000000000000000000600082015250565b7f556e617574686f72697a65642061636365737321000000000000000000000000600082015250565b610fad81610d74565b8114610fb857600080fd5b50565b610fc481610db0565b8114610fcf57600080fd5b5056fea264697066735822122069ad8ffbaa5642d34e904e9ff681014903dfce10fc2beb67060ce509f516901664736f6c63430008030033",
  "immutableReferences": {},
  "source": "// SPDX-License-Identifier: MIT\n\npragma solidity 0.8.3;\n\ncontract DBank {\n    address public manager;\n    mapping(address => uint256) private balances;\n    mapping(address => mapping(uint256 => bool)) nonce;\n\n    constructor() {\n        manager = msg.sender;\n    }\n\n    event EtherDeposited(address account, uint256 amount);\n    event EtherWithdrawn(address account, uint256 amount);\n    event Transaction(address payer, address reciver, uint256 amount);\n\n    function checkBankCapital() public view managerOnly returns (uint256) {\n        return address(this).balance;\n    }\n\n    function checkBalance(address _address) public view returns (uint256) {\n        return balances[_address];\n    }\n\n    function depositBalance() public payable {\n        uint256 amount = uint256(msg.value);\n        balances[msg.sender] += amount;\n        emit EtherDeposited(msg.sender, amount);\n    }\n\n    function withdrawBalance(uint256 _amount) public {\n        address account = msg.sender;\n        require(_amount <= balances[account], \"You don't have enough ether!\");\n        balances[account] -= _amount;\n        payable(account).transfer(_amount);\n    }\n\n    function transferBalance(\n        address _payer,\n        uint256 _amount,\n        uint256 _nonce,\n        bytes memory _signature\n    ) public {\n        address sender = msg.sender;\n        require(!nonce[sender][_nonce], \"Transaction is already performed!\");\n        nonce[sender][_nonce] = true;\n\n        bytes32 hash =\n            keccak256(abi.encodePacked(_payer, sender, _amount, _nonce));\n\n        require(\n            recoverAddress(hash, _signature) == _payer,\n            \"Transaction is not valid\"\n        );\n\n        require(balances[_payer] >= _amount);\n\n        balances[_payer] -= _amount;\n\n        payable(sender).transfer(_amount);\n        emit Transaction(_payer, sender, _amount);\n    }\n\n    function recoverAddress(bytes32 _hash, bytes memory _signature)\n        internal\n        pure\n        returns (address)\n    {\n        (uint8 v, bytes32 r, bytes32 s) = splitSignature(_signature);\n\n        return ecrecover(_hash, v, r, s);\n    }\n\n    function splitSignature(bytes memory _signature)\n        internal\n        pure\n        returns (\n            uint8 v,\n            bytes32 r,\n            bytes32 s\n        )\n    {\n        require(_signature.length == 65);\n\n        assembly {\n            r := mload(add(_signature, 32))\n            s := mload(add(_signature, 64))\n            v := byte(0, mload(add(_signature, 96)))\n        }\n        if (v == 0 || v == 1) {\n            v += 27;\n        }\n\n        require(v == 27 || v == 28, \"Invalid Signature\");\n        return (v, r, s);\n    }\n\n    // function prefixed(bytes32 hash) internal pure returns (bytes32) {\n    //     return\n    //         keccak256(\n    //             abi.encodePacked(\"\\x19Ethereum Signed Message:\\n32\", hash)\n    //         );\n    // }\n\n    modifier managerOnly() {\n        require(msg.sender == manager, \"Unauthorized access!\");\n        _;\n    }\n}\n",
  "sourcePath": "/home/shubham/wsl/Trainning/Blockchain/web3-tasks/task6/contracts/DBank.sol",
  "compiler": {
    "name": "solc",
    "version": "0.8.3+commit.8d00100c.Emscripten.clang"
  },
  "schemaVersion": "3.3.4",
  "updatedAt": "2021-04-30T12:43:29.146Z",
  "networkType": "ethereum",
  "devdoc": {
    "kind": "dev",
    "methods": {},
    "version": 1
  },
  "userdoc": {
    "kind": "user",
    "methods": {},
    "version": 1
  }
}